:020000001628C0
:0E0006008312031321088A00200882000800DC
:1000140003208A110A128000840AA00A0319A10A83
:08002400F003031D0A28080087
:10002C0083120313A201831603178801890103139A
:10003C000814831288018316860183128601081C1A
:10004C0035280130A2001A30FC00F830FD00FD0B01
:10005C002D28FC0B2D280000081C352832282208DE
:10006C0003197A2886150330FB008A30FC005530C2
:10007C00FD00FD0B3F28FC0B3F28FB0B3F2800002D
:10008C000000861106150330FB008A30FC00553049
:10009C00FD00FD0B4F28FC0B4F28FB0B4F280000DD
:1000AC000000061186140330FB008A30FC0055302A
:1000BC00FD00FD0B5F28FC0B5F28FB0B5F2800008D
:1000CC000000861006140330FB008A30FC0055300B
:1000DC00FD00FD0B6F28FC0B6F28FB0B6F2800003D
:0C00EC0000000610A201352825287B2802
:04400E00F22F000786
:00000001FF
