:0200000037289F
:0E0006008312031321088A00200882000800DC
:1000140083120313081829283430FC00F130FD0042
:10002400FD0B1228FC0B12280000000008182928D8
:1000340008181D281A281A30FC00F830FD00FD0BA2
:100044002128FC0B212800000130F0002A28F001AF
:020054000800A2
:1000560003208A110A128000840AA00A0319A10A41
:08006600F003031D2B28080024
:10006E0083120313A2018316031788018901031358
:10007E000814831288018316860183128601F030DC
:10008E000605F1000F302205F0007008710486009D
:10009E000A20700803195628A20A0F30A205462816
:0200AE005728D1
:04400E00F22F000786
:00000001FF
